{
  "contractName": "Election",
  "abi": [
    {
      "inputs": [],
      "payable": false,
      "stateMutability": "nonpayable",
      "type": "constructor"
    },
    {
      "anonymous": false,
      "inputs": [
        {
          "indexed": false,
          "internalType": "uint256",
          "name": "id",
          "type": "uint256"
        },
        {
          "indexed": false,
          "internalType": "string",
          "name": "name",
          "type": "string"
        }
      ],
      "name": "CandidateDeleted",
      "type": "event"
    },
    {
      "anonymous": false,
      "inputs": [
        {
          "indexed": false,
          "internalType": "address",
          "name": "voter",
          "type": "address"
        },
        {
          "indexed": false,
          "internalType": "uint256",
          "name": "to_candidate",
          "type": "uint256"
        }
      ],
      "name": "Voted",
      "type": "event"
    },
    {
      "constant": true,
      "inputs": [
        {
          "internalType": "uint256",
          "name": "",
          "type": "uint256"
        }
      ],
      "name": "candidate",
      "outputs": [
        {
          "internalType": "uint256",
          "name": "index",
          "type": "uint256"
        },
        {
          "internalType": "string",
          "name": "name",
          "type": "string"
        },
        {
          "internalType": "uint256",
          "name": "voteCount",
          "type": "uint256"
        },
        {
          "internalType": "bool",
          "name": "isWinner",
          "type": "bool"
        }
      ],
      "payable": false,
      "stateMutability": "view",
      "type": "function"
    },
    {
      "constant": true,
      "inputs": [],
      "name": "count",
      "outputs": [
        {
          "internalType": "uint256",
          "name": "",
          "type": "uint256"
        }
      ],
      "payable": false,
      "stateMutability": "view",
      "type": "function"
    },
    {
      "constant": true,
      "inputs": [],
      "name": "owner",
      "outputs": [
        {
          "internalType": "address",
          "name": "",
          "type": "address"
        }
      ],
      "payable": false,
      "stateMutability": "view",
      "type": "function"
    },
    {
      "constant": true,
      "inputs": [
        {
          "internalType": "address",
          "name": "",
          "type": "address"
        }
      ],
      "name": "voters",
      "outputs": [
        {
          "internalType": "bool",
          "name": "",
          "type": "bool"
        }
      ],
      "payable": false,
      "stateMutability": "view",
      "type": "function"
    },
    {
      "constant": false,
      "inputs": [
        {
          "internalType": "string",
          "name": "_name",
          "type": "string"
        }
      ],
      "name": "addCandidate",
      "outputs": [],
      "payable": false,
      "stateMutability": "nonpayable",
      "type": "function"
    },
    {
      "constant": false,
      "inputs": [
        {
          "internalType": "uint256",
          "name": "_candidateIndex",
          "type": "uint256"
        }
      ],
      "name": "deleteCandidate",
      "outputs": [],
      "payable": false,
      "stateMutability": "nonpayable",
      "type": "function"
    },
    {
      "constant": true,
      "inputs": [],
      "name": "getCandidates",
      "outputs": [
        {
          "components": [
            {
              "internalType": "uint256",
              "name": "index",
              "type": "uint256"
            },
            {
              "internalType": "string",
              "name": "name",
              "type": "string"
            },
            {
              "internalType": "uint256",
              "name": "voteCount",
              "type": "uint256"
            },
            {
              "internalType": "bool",
              "name": "isWinner",
              "type": "bool"
            }
          ],
          "internalType": "struct Election.Candidate[]",
          "name": "",
          "type": "tuple[]"
        }
      ],
      "payable": false,
      "stateMutability": "view",
      "type": "function"
    },
    {
      "constant": false,
      "inputs": [
        {
          "internalType": "uint256",
          "name": "_candidateIndex",
          "type": "uint256"
        }
      ],
      "name": "vote",
      "outputs": [],
      "payable": false,
      "stateMutability": "nonpayable",
      "type": "function"
    },
    {
      "constant": false,
      "inputs": [],
      "name": "getWinner",
      "outputs": [],
      "payable": false,
      "stateMutability": "nonpayable",
      "type": "function"
    }
  ],
  "bytecode": "0x608060405234801561001057600080fd5b50336000806101000a81548173ffffffffffffffffffffffffffffffffffffffff021916908373ffffffffffffffffffffffffffffffffffffffff1602179055506113e7806100606000396000f3fe608060405234801561001057600080fd5b50600436106100935760003560e01c80631e620cd4116100665780631e620cd414610123578063462e91ec1461013f5780638da5cb5b1461015b5780638e7ea5b214610179578063a3ec138d1461018357610093565b80630121b93f1461009857806306661abd146100b457806306a49fce146100d25780631de43c4b146100f0575b600080fd5b6100b260048036036100ad9190810190610d3d565b6101b3565b005b6100bc610307565b6040516100c99190611144565b60405180910390f35b6100da61030d565b6040516100e791906110a7565b60405180910390f35b61010a60048036036101059190810190610d3d565b61043d565b60405161011a949392919061118f565b60405180910390f35b61013d60048036036101389190810190610d3d565b61051f565b005b61015960048036036101549190810190610cfc565b6108cb565b005b610163610a09565b6040516101709190611063565b60405180910390f35b610181610a2e565b005b61019d60048036036101989190810190610cd3565b610b1e565b6040516101aa91906110c9565b60405180910390f35b60001515600160003373ffffffffffffffffffffffffffffffffffffffff1673ffffffffffffffffffffffffffffffffffffffff16815260200190815260200160002060009054906101000a900460ff16151514610246576040517f08c379a000000000000000000000000000000000000000000000000000000000815260040161023d906110e4565b60405180910390fd5b6002818154811061025357fe5b90600052602060002090600402016002016000815480929190600101919050555060018060003373ffffffffffffffffffffffffffffffffffffffff1673ffffffffffffffffffffffffffffffffffffffff16815260200190815260200160002060006101000a81548160ff0219169083151502179055507f4d99b957a2bc29a30ebd96a7be8e68fe50a3c701db28a91436490b7d53870ca433826040516102fc92919061107e565b60405180910390a150565b60035481565b60606002805480602002602001604051908101604052809291908181526020016000905b82821015610434578382906000526020600020906004020160405180608001604052908160008201548152602001600182018054600181600116156101000203166002900480601f0160208091040260200160405190810160405280929190818152602001828054600181600116156101000203166002900480156103f75780601f106103cc576101008083540402835291602001916103f7565b820191906000526020600020905b8154815290600101906020018083116103da57829003601f168201915b50505050508152602001600282015481526020016003820160009054906101000a900460ff16151515158152505081526020019060010190610331565b50505050905090565b6002818154811061044a57fe5b9060005260206000209060040201600091509050806000015490806001018054600181600116156101000203166002900480601f0160208091040260200160405190810160405280929190818152602001828054600181600116156101000203166002900480156104fc5780601f106104d1576101008083540402835291602001916104fc565b820191906000526020600020905b8154815290600101906020018083116104df57829003601f168201915b5050505050908060020154908060030160009054906101000a900460ff16905084565b6000809054906101000a900473ffffffffffffffffffffffffffffffffffffffff1673ffffffffffffffffffffffffffffffffffffffff163373ffffffffffffffffffffffffffffffffffffffff16146105ae576040517f08c379a00000000000000000000000000000000000000000000000000000000081526004016105a590611104565b60405180910390fd5b6060600282815481106105bd57fe5b90600052602060002090600402016001018054600181600116156101000203166002900480601f0160208091040260200160405190810160405280929190818152602001828054600181600116156101000203166002900480156106625780601f1061063757610100808354040283529160200191610662565b820191906000526020600020905b81548152906001019060200180831161064557829003601f168201915b5050505050905060006002838154811061067857fe5b9060005260206000209060040201600001549050610694610b3e565b6002600160028054905003815481106106a957fe5b906000526020600020906004020160405180608001604052908160008201548152602001600182018054600181600116156101000203166002900480601f0160208091040260200160405190810160405280929190818152602001828054600181600116156101000203166002900480156107655780601f1061073a57610100808354040283529160200191610765565b820191906000526020600020905b81548152906001019060200180831161074857829003601f168201915b50505050508152602001600282015481526020016003820160009054906101000a900460ff161515151581525050905080600285815481106107a357fe5b90600052602060002090600402016000820151816000015560208201518160010190805190602001906107d7929190610b68565b506040820151816002015560608201518160030160006101000a81548160ff021916908315150217905550905050816002858154811061081357fe5b906000526020600020906004020160000181905550600280548061083357fe5b60019003818190600052602060002090600402016000808201600090556001820160006108609190610be8565b60028201600090556003820160006101000a81549060ff0219169055505090556002805490506003819055507f05ff1f7b57a0583f465c1b37ab337c69bd6881edab4b3ecf599a92d84b9b465d84846040516108bd92919061115f565b60405180910390a150505050565b6000809054906101000a900473ffffffffffffffffffffffffffffffffffffffff1673ffffffffffffffffffffffffffffffffffffffff163373ffffffffffffffffffffffffffffffffffffffff161461095a576040517f08c379a000000000000000000000000000000000000000000000000000000000815260040161095190611124565b60405180910390fd5b610962610b3e565b818160200181905250600354816000018181525050600281908060018154018082558091505090600182039060005260206000209060040201600090919290919091506000820151816000015560208201518160010190805190602001906109cb929190610b68565b506040820151816002015560608201518160030160006101000a81548160ff0219169083151502179055505050506002805490506003819055505050565b6000809054906101000a900473ffffffffffffffffffffffffffffffffffffffff1681565b600080905060008090505b600280549050811015610a9b5760028181548110610a5357fe5b906000526020600020906004020160020154821015610a8e5760028181548110610a7957fe5b90600052602060002090600402016002015491505b8080600101915050610a39565b5060008090505b600280549050811015610b1a5760028181548110610abc57fe5b906000526020600020906004020160020154821415610b0d57600160028281548110610ae457fe5b906000526020600020906004020160030160006101000a81548160ff0219169083151502179055505b8080600101915050610aa2565b5050565b60016020528060005260406000206000915054906101000a900460ff1681565b60405180608001604052806000815260200160608152602001600081526020016000151581525090565b828054600181600116156101000203166002900490600052602060002090601f016020900481019282601f10610ba957805160ff1916838001178555610bd7565b82800160010185558215610bd7579182015b82811115610bd6578251825591602001919060010190610bbb565b5b509050610be49190610c30565b5090565b50805460018160011615610100020316600290046000825580601f10610c0e5750610c2d565b601f016020900490600052602060002090810190610c2c9190610c30565b5b50565b610c5291905b80821115610c4e576000816000905550600101610c36565b5090565b90565b600081359050610c6481611376565b92915050565b600082601f830112610c7b57600080fd5b8135610c8e610c8982611208565b6111db565b91508082526020830160208301858383011115610caa57600080fd5b610cb5838284611323565b50505092915050565b600081359050610ccd8161138d565b92915050565b600060208284031215610ce557600080fd5b6000610cf384828501610c55565b91505092915050565b600060208284031215610d0e57600080fd5b600082013567ffffffffffffffff811115610d2857600080fd5b610d3484828501610c6a565b91505092915050565b600060208284031215610d4f57600080fd5b6000610d5d84828501610cbe565b91505092915050565b6000610d728383610fe2565b905092915050565b610d83816112ed565b82525050565b610d92816112a5565b82525050565b6000610da382611244565b610dad8185611272565b935083602082028501610dbf85611234565b8060005b85811015610dfb5784840389528151610ddc8582610d66565b9450610de783611265565b925060208a01995050600181019050610dc3565b50829750879550505050505092915050565b610e16816112b7565b82525050565b610e25816112b7565b82525050565b6000610e368261125a565b610e408185611294565b9350610e50818560208601611332565b610e5981611365565b840191505092915050565b6000610e6f8261124f565b610e798185611283565b9350610e89818560208601611332565b610e9281611365565b840191505092915050565b6000610ea88261124f565b610eb28185611294565b9350610ec2818560208601611332565b610ecb81611365565b840191505092915050565b6000610ee3600d83611294565b91507f416c726561647920566f746564000000000000000000000000000000000000006000830152602082019050919050565b6000610f23602783611294565b91507f596f7520617265206e6f7420616c6c6f77656420746f2064656c65746520436160008301527f6e646964617465000000000000000000000000000000000000000000000000006020830152604082019050919050565b6000610f89602483611294565b91507f596f7520617265206e6f7420616c6c6f77656420746f206164642043616e646960008301527f64617465000000000000000000000000000000000000000000000000000000006020830152604082019050919050565b6000608083016000830151610ffa6000860182611045565b50602083015184820360208601526110128282610e64565b91505060408301516110276040860182611045565b50606083015161103a6060860182610e0d565b508091505092915050565b61104e816112e3565b82525050565b61105d816112e3565b82525050565b60006020820190506110786000830184610d89565b92915050565b60006040820190506110936000830185610d7a565b6110a06020830184611054565b9392505050565b600060208201905081810360008301526110c18184610d98565b905092915050565b60006020820190506110de6000830184610e1c565b92915050565b600060208201905081810360008301526110fd81610ed6565b9050919050565b6000602082019050818103600083015261111d81610f16565b9050919050565b6000602082019050818103600083015261113d81610f7c565b9050919050565b60006020820190506111596000830184611054565b92915050565b60006040820190506111746000830185611054565b81810360208301526111868184610e2b565b90509392505050565b60006080820190506111a46000830187611054565b81810360208301526111b68186610e9d565b90506111c56040830185611054565b6111d26060830184610e1c565b95945050505050565b6000604051905081810181811067ffffffffffffffff821117156111fe57600080fd5b8060405250919050565b600067ffffffffffffffff82111561121f57600080fd5b601f19601f8301169050602081019050919050565b6000819050602082019050919050565b600081519050919050565b600081519050919050565b600081519050919050565b6000602082019050919050565b600082825260208201905092915050565b600082825260208201905092915050565b600082825260208201905092915050565b60006112b0826112c3565b9050919050565b60008115159050919050565b600073ffffffffffffffffffffffffffffffffffffffff82169050919050565b6000819050919050565b60006112f8826112ff565b9050919050565b600061130a82611311565b9050919050565b600061131c826112c3565b9050919050565b82818337600083830152505050565b60005b83811015611350578082015181840152602081019050611335565b8381111561135f576000848401525b50505050565b6000601f19601f8301169050919050565b61137f816112a5565b811461138a57600080fd5b50565b611396816112e3565b81146113a157600080fd5b5056fea365627a7a723158209b67b0a4e2e9abff31b0363ec19cf7db8b7664b5e20c0aba5757bc2d4c5ecf6d6c6578706572696d656e74616cf564736f6c63430005100040",
  "source": "pragma solidity ^0.5.16;\r\npragma experimental ABIEncoderV2;\r\n\r\ncontract Election{\r\n\r\n\taddress public owner;\r\n\tstruct Candidate{\r\n\t\tuint index;\r\n\t\tstring name;\r\n\t\tuint voteCount;\r\n\t\tbool isWinner;\r\n\t}\r\n\r\n\tmapping(address => bool) public voters;\r\n\r\n    Candidate[] public candidate;\r\n    \r\n    uint public count;\r\n\t\r\n\tevent Voted(\r\n\t\taddress voter,\r\n\t\tuint to_candidate\r\n\t);\r\n\r\n\tevent CandidateDeleted(\r\n\t\tuint id,\r\n\t\tstring name\r\n\t);\r\n\t\r\n\tconstructor() public{\r\n\t\towner = msg.sender;\r\n\t}\r\n\r\n\r\n\tfunction addCandidate(string memory _name) public{\r\n\t\trequire(msg.sender==owner, \"You are not allowed to add Candidate\");\r\n\r\n\t\tCandidate memory c;\r\n\t\tc.name = _name;\r\n\t\tc.index = count;\r\n\t\tcandidate.push(c);\r\n\t\tcount = candidate.length;\r\n\t}\r\n\r\n\tfunction deleteCandidate(uint _candidateIndex) public{\r\n\t\trequire(msg.sender==owner, \"You are not allowed to delete Candidate\");\r\n\t\t\r\n\t\tstring memory _name = candidate[_candidateIndex].name;\r\n       \tuint idx = candidate[_candidateIndex].index;\r\n\r\n        Candidate memory temp = candidate[candidate.length-1];\r\n        candidate[_candidateIndex] = temp;\r\n       \tcandidate[_candidateIndex].index = idx;\r\n        candidate.pop();\r\n        count = candidate.length;\r\n        \r\n\t\temit CandidateDeleted(_candidateIndex, _name);\r\n\r\n\t}\r\n\t\r\n\t\r\n\tfunction getCandidates() public view returns(Candidate[] memory){\r\n\t    return candidate;    \r\n\t}\r\n\t\r\n\tfunction vote(uint _candidateIndex) public{\r\n\t\trequire(voters[msg.sender]==false, \"Already Voted\");\r\n\t\t\r\n\t\tcandidate[_candidateIndex].voteCount++;\r\n\t\t\r\n\t\tvoters[msg.sender] = true;\r\n\t\temit Voted(msg.sender, _candidateIndex);\r\n\t}\r\n\t\r\n\tfunction getWinner() public{\r\n\t    \r\n\t    uint max_count = 0;\r\n\t    for(uint i=0;i<candidate.length;i++){\r\n\t        if(max_count<candidate[i].voteCount)\r\n\t        {\r\n\t            max_count = candidate[i].voteCount;\r\n\t        }\r\n\t    }\r\n\t    \r\n\t    for(uint i=0;i<candidate.length;i++)\r\n\t    {\r\n\t        if(max_count==candidate[i].voteCount){\r\n\t            candidate[i].isWinner = true;\r\n\t        }\r\n\t    }\r\n\t}\r\n}",
  "sourcePath": "D:/ProjectVoting/Election2/src/contracts/Election.sol",
  "compiler": {
    "name": "solc",
    "version": "0.5.16+commit.9c3226ce.Emscripten.clang"
  },
  "schemaVersion": "3.4.1",
  "updatedAt": "2021-07-16T17:53:02.273Z",
  "networkType": "ethereum",
  "devdoc": {
    "methods": {}
  },
  "userdoc": {
    "methods": {}
  }
}